:020000040800F2
:10000000E01D002055D80008DDA90008E1A900087E
:1000100000000000000000000000000000000000E0
:1000200000000000000000000000000011AA00080D
:10003000000000000000000013AA000815AA000834
:10004000A7180008772300081DAA00084F3C0008E5
:10005000733C00088F4100082DAA00084B5300088C
:10006000000000004DAA0008D7630008276E0008B2
:1000700057AA0008437800080000000093780008A1
:100080000000000061AA000800000000000000005D
:10009000F381000800000000978D0008978E00088B
:1000A000A38F0008BB920008BF9A00086BAA000843
:1000B00079AA0008DBA90008000000000000000089
:1000C000F0B597B0C7480068C749884201D301F02E
:1000D00032FAC6481290067CC54F002E1BD0C54B85
:1000E0003B22C549781D01F051FA781D01F06EFAE6
:1000F000C2497A1D101801F049FA791D012001F05A
:1001000072FABF48006801210143BD48016001F057
:100110009BFABC490860BC481490BC480078002891
:1001200000D046E2BA4800696321C943884200D141
:100130008FE0149880680290002800D185E00020AC
:1001400069460871002500E0250068460079401CDA
:1001500069460871AE4800690C79042C32DA0299BC
:10016000401A01F0B9FA002101F0C2FA03D20100ED
:10017000C54801F0D0FAC54901F0CDFA00900298C7
:1001800001F0AAFA0100009801F01DFB01F06EFBDE
:100190000A285ADBBE4800900346FF220A329649DD
:1001A000781D01F0F3F9781D01F010FA2200B94929
:1001B0007B1D181801F0EAF9791D012001F013FAEE
:1001C0002C001FE014998860B14BFD228A49781DEC
:1001D00001F0DCF9781D01F0F9F9AF492CE08D222E
:1001E00052008549781D01F0D1F9781D01F0EEF932
:1001F0002A00AA497B1D181801F0C8F9791D0120B1
:1002000001F0F1F9062001F049FE01F0EDFF804810
:1002100000696321C943884296D1641CE5B2042D6C
:10022000009BDCDBFF2214327349781D01F0AEF92C
:10023000781D01F0CBF99A497A1D101801F0A6F942
:10024000791D012001F0CFF903E07148006914998C
:1002500088601298847A002C01D101F0F5F9200011
:1002600090280FDB00228F495300CB185C881C803C
:10027000521C431E9A42F7DB654800698F225200E8
:10028000885207E062490969864A40001152641C9D
:10029000129884725E48057D1298007DA84257D05E
:1002A000544B49228049781D01F070F9781D01F006
:1002B0008DF97E4C2A0021007B1D181801F066F98B
:1002C000791D022001F08FF9012D0BD1494B4C22F1
:1002D0007549781D01F05AF9781D01F077F9210070
:1002E000283124E0022D434B0AD150226E49781D5B
:1002F00001F04CF9781D01F069F92100503116E048
:10030000032D0AD154226849781D01F03FF9781D68
:1003100001F05CF92100783109E058226249781D2A
:1003200001F034F9781D01F051F921009C317A1D5A
:10033000101801F02BF9791D022001F054F91298E0
:1003400005752F480068022101432D4801600126F0
:10035000DF4804781298C07CA0421AD01298C47466
:100360002748016804220A430260224B65224E4955
:10037000781D01F00BF9781D01F028F92200D5490C
:100380007B1D181801F002F9791D022001F02BF9EC
:1003900001261F4800691A4C6321C943884200D1D5
:1003A000ADE01299497C0825CB4AD288824231DBE4
:1003B000002915D10F4B71223B49781D01F0E6F859
:1003C000781D01F003F9C5497A1D101801F0DEF817
:1003D000791D022001F007F92068054325600126F8
:1003E000012030E0C4190020015C2605EA0100204C
:1003F0005012002008CC000814CC000828CC0008BB
:10040000C0190020BC1900200C020020EC180020AC
:10041000D4180020002915D0B14B7D22B149781D98
:1004200001F0B4F8781D01F0D1F8AF497A1D101829
:1004300001F0ACF8791D012001F0D5F820680543E2
:10044000256001260020129948741298817CA748E3
:100450000569A1488289AA422ADB002911D1A04B53
:100460008A22A049781D01F091F8781D01F0AEF8BC
:100470009F497A1D101801F089F8791D012001F0BB
:10048000B2F8012039E000BF000080BF0000C84280
:10049000B4CC0008F4C10008C8C1000890C200082C
:1004A00050C200081C00002040CC000858BF0008C3
:1004B000002924D0018900916421807A081A01F072
:1004C0002BFF00994843854219DB854B93228949CC
:1004D000781D01F05BF8781D01F078F886497A1DE7
:1004E000101801F053F8791D002001F07CF8206805
:1004F00010210143216001260020129988747F4851
:100500000178002906D000210170206840210143B4
:1005100021600126724BA5227649781D01F036F83C
:10052000781D01F053F82268E2497B1D181801F08C
:100530002DF8791D002001F056F8300015D0684BD9
:10054000A7226849781D01F021F801F07DF8050027
:10055000781D01F03BF82A00DD497B1D181801F0D9
:1005600015F8791D012001F03EF801F06DF8D94928
:100570000968401A5849898888421AD3206820217E
:10058000014321600126564BAF225649781D00F0E9
:10059000FDFF01F059F80400781D01F017F8220062
:1005A000CD497B1D181800F0F1FF791D012001F0E5
:1005B0001AF8129806741298007C002817D1484B3C
:1005C000B7224849781D00F0E1FF01F03DF8040032
:1005D000781D00F0FBFF2200D5497B1D181800F0A4
:1005E000D5FF791D012000F0FEFF00F05AFE01F05A
:1005F0002BF8B8490860012001F01EFFFA2002F034
:1006000093FE802000900026019602966946C94814
:1006100002F09EFE01224021C64802F0DBFF64206A
:1006200002F082FE002402F0F7FFC3491291050098
:1006300002F0F2FF401BC149884233D28021BD48FD
:1006400002F0C2FF0128F3D1BD4BFB229200BD494D
:10065000781D00F09BFF781D00F0B8FFBA497A1DA5
:10066000101800F093FF791D022000F0BCFF1298D3
:1006700046730124B04D687D13A90870AD4E002269
:100680004021300002F0A6FF00228021300001F05E
:10069000A3FC002C34D101206873002013A908703A
:1006A00000F085FDA64BCF4AA649781D00F06EFFED
:1006B000781D00F08BFFCC497A1D101800F066FF02
:1006C000791D022000F08FFF012012994873D1E7B5
:1006D000D819002018C000086418002050CC000869
:1006E00008CC000814CC000864CC0008D418002002
:1006F00074CC00088CCC00089CCC00081A020020A6
:1007000002F08AFF1690AD7D64E0B84BFF2286327E
:100710008C49781D00F03AFF781D00F057FFB4496E
:100720007A1D101800F032FF791D022000F05BFFE7
:1007300021E0002EE9D0002300223100AD4802F074
:10074000B5F9002800D15DE1A84BFF227832AA4913
:10075000781D00F01BFF781D00F038FFA7497A1DB7
:10076000101800F013FF791D012000F03CFF01205C
:100770001299C8720225300002F054FF0020CE49C1
:1007800008609A4C2300C62252009D49781D00F053
:10079000FDFE781D00F01AFFC8497A1D101800F000
:1007A000F5FE791D002000F01EFF2300C722520035
:1007B0009349781D00F0EAFE781D00F007FF9622AD
:1007C0005200BF497B1D181800F0E0FE791D002083
:1007D00000F009FFBB48E721490040181290407B18
:1007E000002800D027E103F091F8280076D102F02C
:1007F00013FF1699401AB44988425DD201F084FE75
:100800000028E7D0B14BF62252007D49781D00F058
:10081000BDFE781D00F0DAFEAD4CAC21C9006118B8
:100820007A1D101800F0B2FE791D002000F0DBFEEA
:10083000A84801F085FE0028A44B28D0FF22F23200
:100840006F49781D00F0A2FE781D00F0BFFEA2499E
:100850007A1D101800F09AFE791D002000F0C3FEEA
:10086000624BFF225A326449781D00F08FFE781DDA
:1008700000F0ACFEEB21890061187A1D101800F021
:1008800085FE791D012000F0AEFE0125A2E7FC22C5
:1008900052002C49781D00F079FE781D00F096FE7C
:1008A0008E4961187A1D101800F070FE791D022023
:1008B0008EE700BF3CC000084C4BA92252002149E2
:1008C000781D00F063FE781D00F080FE8449AAE0E8
:1008D00064C00008BC190020B8C00008012D00D079
:1008E000AAE0804801F0DAFE002804D000217E480A
:1008F00002F07CF8002800D140E78020400003F09F
:10090000BBF81590002857D07848017D880701D59D
:10091000774800E07748C90701D5754900E0754977
:10092000724A547D724AA30710D513000FE000BF2E
:1009300010C1000800040050EA010020B90B0000BB
:10094000C0CF000840CC0008E4CF0008694BE407A2
:1009500000D4684A5F4C654E36691196129EF67B4C
:100960001096129EB67B0F96634E0E960D900C91CC
:100970000B930A925D48806803F01EF90890099174
:100980005A48406803F018F906900791200041305A
:10099000049020780390601C0290149840680190A5
:1009A000564800680090514803685548027F5549F1
:1009B000159800F0EBFD11E0534B544A5449781D53
:1009C00000F0E4FD781D00F001FE52497A1D101878
:1009D00000F0DCFD791D022000F005FE0624159EC6
:1009E00013E000BFE2030000D0CF0008C8CC00082D
:1009F00008CD0008FCCC000814CC000828C300086F
:100A00008CCC0008FA2002F08FFC641E00D090E627
:100A1000414BB72252003E49781D00F0B7FD781DCA
:100A200000F0D4FDD3497A1D101800F0AFFD791DF8
:100A3000022000F0D8FDB8E3022D00D0CAE6364E01
:100A4000CD493300FF229432781D00F09FFD781DC0
:100A500000F0BCFD1E4C8021C90061187A1D1018E1
:100A600000F094FD791D002000F0BDFD12480068E3
:100A7000C249884252D33300CC2252002449781D07
:100A800000F084FD781D00F0A1FD96225200862121
:100A9000C90061187B1D181800F078FD791D02202F
:100AA00000F0A1FD00200025034908600121129AF1
:100AB000517313A978E300BFC819002018CD0008AE
:100AC00038CD00081C00002061EA000098CD000825
:100AD00058BF00080C040020B0CD000884050000B9
:100AE000D8C2000844020020D8CC0008D418002046
:100AF000ECCD0008A0CF000830CE0008C0190020BF
:100B000064180020ACC5000884CF0008D2020000A1
:100B100040CC0008A8CF0008C8CC000802F00EF8AE
:100B2000A6480078002802D01298C07A002800D188
:100B300050E63346D32252008F49781D00F026FD3F
:100B4000781D00F043FD25469D4969187A1D10184F
:100B500000F01CFD791D002000F045FD02201299D7
:100B60008875984C9849D74800F0D2FB002800D1EE
:100B7000E8E22300954A8049781D00F007FD781DC2
:100B800000F024FD924A93497B1D181800F0FEFCEA
:100B9000791D002000F027FD8F498D4803F025F8CE
:100BA000002800D1AAE223008C4A7349781D00F086
:100BB000EDFC781D00F00AFD89497A1D101800F03F
:100BC000E5FC791D002000F00EFD86480090864D62
:100BD00086A1BC4800F0F4FB002818D02300842232
:100BE00092006549781D00F0D1FC781D00F0EEFC04
:100BF000EA687F497B1D181800F0C8FC791D0020A9
:100C000000F0F1FCE868002801D0009908607949FB
:100C1000AC4800F0D5FB002817D02300764A56498F
:100C2000781D00F0B3FC781D00F0D0FCEA68734931
:100C30007B1D181800F0AAFC791D002000F0D3FCE1
:100C4000E868002801D0009988809621604802F069
:100C5000E3FF6B499B4800F05BFB00282BD023008F
:100C6000684A4549781D00F091FC781D00F0AEFC03
:100C7000574E320064497B1D181800F087FC791D1F
:100C8000002000F0B0FC6149300002F0CDFF0028E8
:100C900011D023005E4A3849781D00F077FC781D9A
:100CA00000F094FC5B497A1D101800F06FFC791D70
:100CB000002000F098FC9621454802F0ADFF56490F
:100CC000804800F025FB00281CD02300534A2A4905
:100CD000781D00F05BFC781D00F078FC3C4E320083
:100CE0004F497B1D181800F051FC791D002000F0C1
:100CF0007AFC4C49300002F078FF002800D0012037
:100D00000099087423216F4802F098FF0600232100
:100D1000701C02F093FF002E0BD0002809D0711C2C
:100D2000401A80B202900298401C02F0A5FE019089
:100D3000002800D1A1E0029A711C02F089FF002076
:100D40000199029A88543849019802F04EFF002810
:100D500070D03A2102F072FF00286FD0401C017859
:100D60002029FBD00929F9D00A29F7D00D29F5D07F
:100D7000002108E0E4CC00088CCC0008E0930400DB
:100D80001370401C491C294ACBB2D218F4235B00D3
:100D9000D2180378222B04D02C2B02D0CEB2062EF0
:100DA000EED900201070224803F0FFF803F003F999
:100DB00014990860019802F035FC44E044090020D1
:100DC0007C040000BCCD0008D4CD00080602000061
:100DD00010140020DCCD0008ECCD00080A02000051
:100DE00004C500083C010020901900207473000025
:100DF000F4CD0008FCCD00081D02000008CE00085C
:100E000018CE00082D02000020CE000830CE0008C9
:100E10003102000038CE000850CE00083B0200002E
:100E200058CE000864CE00086CCE00081C000020DC
:100E300004020020019802F0F5FB1EE013A8401CFC
:100E40000078002819D0230093229200B149781D20
:100E500000F09CFB781D00F0B9FB060014980068B8
:100E600002F0AAFE02000B00AB49781D801900F0C9
:100E70008DFB791D002000F0B6FB124EA749300013
:100E800000F09EFA002817D02300A54AA149781D3A
:100E900000F07CFB781D00F099FBEA68A1497B1DFE
:100EA000181800F073FB791D002000F09CFBE86827
:100EB000002801D00099486196219B4802F0ACFEC1
:100EC0009A4901E048090020300000F021FA00288A
:100ED00025D02300964A8F49781D00F057FB781DD6
:100EE00000F074FB904A93497B1D181800F04EFBEC
:100EF000791D002000F077FB23009A22920085499B
:100F0000781D00F043FB781D00F060FB8A497A1DD4
:100F1000101800F03BFB791D002000F064FB8749AE
:100F2000300000F04DFA002817D02300844A794998
:100F3000781D00F02BFB781D00F048FBEA68DB49C8
:100F40007B1D181800F022FB791D002000F04BFBE0
:100F5000E868002801D012990880D549300000F0D7
:100F60002FFA002818D02300A02292006949781D8A
:100F700000F00CFB781D00F029FBEA68D5497B1DC9
:100F8000181800F003FB791D002000F02CFBE86826
:100F9000002801D012994880CF49300000F010FAA3
:100FA000002817D02300CD4A5A49781D00F0EEFAE8
:100FB000781D00F00BFBEA68C9497B1D181800F08A
:100FC000E5FA791D002000F00EFBE868002801D04A
:100FD00012998880C849300000F0F2F9002817D033
:100FE0002300C64A4B49781D00F0D0FA781D00F066
:100FF000EDFAEA68C2497B1D181800F0C7FA791D9E
:10100000002000F0F0FAE868002801D01299C880AA
:101010001298017B0098027CA648037F9A4201D077
:1010200002770121009A13688569AB4201D0836180
:101030000121009B9B888588AB4204D09121490106
:10104000009B99800121009A53698569AB4201D0C8
:1010500083610121129B1B880589AB4201D003816A
:101060000121129A5288012583899A4201D08281F6
:101070000121129A9288867AB24201D082720121AD
:10108000129AD288038A9A4203D0028212990D736F
:1010900003E012980173002901D003F010F8230037
:1010A000A9229200BF49781D00F070FA781D00F067
:1010B0008DFA944C94490A88BA21C90061187B1DA5
:1010C000181800F063FA791D012000F08CFAB64B75
:1010D000FF22AC32B349781D00F058FA781D00F0B9
:1010E00075FA8A4961187A1D101800F04FFA791DB7
:1010F000012000F078FA13A8057050E02300AB4AF5
:10110000AB49781D00F042FA781D00F05FFAA9495A
:10111000691821E08CCC000878CE00088CCE00083D
:1011200055020000A4CE000810140020C0CE000814
:1011300063020000C8CE0008D4CE0008ECCE000840
:101140007202000023009C4A9949781D00F01EFAA3
:10115000781D00F03BFA99497A1D101800F016FA34
:10116000791D022000F03FFA3346DC2252008D49FF
:10117000781D00F00BFA781D00F028FA9D21C900B7
:1011800069187A1D101800F001FA791D012000F08D
:101190002AFA012012994873002013A90870002030
:1011A0000025AD490860AD4908701298857501F0B9
:1011B000ADFD01F017F9002001F03EF901F0EAFD64
:1011C000A74BF12252007A49781D00F0DFF9781D13
:1011D00000F0FCF9A3497A1D101800F0D7F9791D29
:1011E000022000F000FAA04CE07A002812D16E4BE9
:1011F000E62252006E49781D00F0C8F9781D00F013
:10120000E5F99A497A1D101800F0C0F9791D0220FD
:1012100000F0E9F913A8007860750025E572607B9D
:10122000002812D0604BE92252006149781D00F07D
:10123000ADF9781D00F0CAF98D497A1D101800F03B
:10124000A5F9791D022000F0CEF98A4B13A8007889
:10125000002810D0A57288480560C6225149781D23
:1012600000F094F900F0F0F90600781D00F0AEF9F6
:10127000320082490CE0CC224A49781D00F086F900
:1012800000F0E2F90600781D00F0A0F932007C4978
:101290007B1D181800F07AF9791D012000F0A3F9E0
:1012A000257401207749087017B0F0BDF4CE00080E
:1012B00008CF00086418002080B57348007F00281C
:1012C00003D0FA2002F0ABFF01BDFA2002F0CAFF02
:1012D00001BD000014CF00082CCF00088D020000D3
:1012E00038CF00086948007D002801D165490870A1
:1012F00001206749087070474CCF00089A0200002F
:101300005CCF000858BF00084A190020A404000060
:10131000F8B50D00232102F091FC04002321601C8C
:1013200002F08CFC002C3BD0002839D0611C471AFD
:10133000BFB2781C02F0A0FB060031D03A00611C5D
:1013400002F086FC0024F4552900300002F04DFC28
:10135000002822D03A2102F071FC002809D0401C5C
:1013600001782029FBD00929F9D00A29F7D00D29C5
:10137000F5D0017822290FD1401C002102E0137022
:10138000401C491C434ACBB2D2180378222B02D00E
:10139000CDB2952DF3D3147080E0300002F042F905
:1013A0000020F2BD14CC0008C8CC0008AB0200003D
:1013B00040CC0008FC050000B102000070CF00081E
:1013C000F8B50D00232102F039FC04002321601C34
:1013D00002F034FC002C3DD000283BD0611C471AA1
:1013E000BFB2781C02F048FB060033D03A00611C03
:1013F00002F02EFC0024F4552900300002F0F5FB29
:10140000002824D03A2102F019FC002823D0401CE7
:1014100001782029FBD00929F9D00A29F7D00D2914
:10142000F5D000211C4D02E01370401C491CCAB2CB
:10143000AA180378222B04D02C2B02D0CFB20B2F6A
:10144000F2D31470280002F0D2FFE86026E03000EA
:1014500002F0E8F80020F2BDC8190020440900207D
:1014600068CD000878CD0008EA0100207CC400089F
:1014700050CD000808CC0008C019002044C1000865
:101480008CC100081802002064180020D418002025
:10149000EC1800201014002090190020300002F0F9
:1014A000C1F80120F2BD0368002A03D15B1E03606E
:1014B000080070471978002902D10020C043704706
:1014C000591C01601878704710B5C20018231340EA
:1014D000FF249C40E2438907090E9940030004D48D
:1014E00023489B089B00C01806E0224B0007000F12
:1014F000083880088000181803681A4011430160FA
:1015000010BD80B5FFF7E0FF01BD010005D401214A
:10151000C006C00E8140184801607047010009D420
:101520000121C006C00E814014480160BFF34F8FF7
:10153000BFF36F8F7047BFF34F8F11481149086099
:10154000BFF34F8F00BFFDE710B5401E8021490457
:10155000884201D3012010BD0B4C606003210020A4
:10156000C043FFF7B1FF0020A0600721216010BD3C
:1015700000E400E01CED00E000E100E080E100E0BC
:101580000400FA050CED00E010E000E00CB418B522
:1015900083B004000A0006A8029001940020009085
:1015A00002AB01A9084878441E3002F02BFF00214D
:1015B000019A1170002801D40198001B04B0019910
:1015C00010BC03B0084700BF13000000431C0178A3
:1015D000401C0942FBD1C01A70470268531C0360CB
:1015E00011707047704770B504000D002800FFF7B8
:1015F000EDFF801C411CFF2921D82100104C1A222C
:101600002270020A6270A070E17001202071002631
:1016100004E0A85DA1194871761CB6B22800FFF756
:10162000D5FF8642F5D32800FFF7D0FF421D90B2C8
:1016300081000B1892B22100024803F0DDFE70BD5C
:1016400050120020A8140020F0B58DB0194C0022D3
:1016500003A9200004F019FE002202A9200004F0D2
:1016600038FE02A8C1786A461170447869464C7009
:1016700085786846857003A80178D17046786946F8
:101680000E718778684647712C2102A802F0C4FACF
:101690006846007864300790641E06940595684695
:1016A000C07804900396029702A804F095FE0DB04E
:1016B000F0BD00008C1800209D2102000AD002D449
:1016C000491E9218FCD5C905100A1206524100D3D2
:1016D000012A4841704700009D210200EED5524288
:1016E000F446FFF7EBFF0122D207104360472E00BC
:1016F0000CB4012212060318DA4207D84B18DA425A
:1017000004D802000A43921802D288420CBC7047E7
:10171000FCD08142FAE730B405004D400122D207E7
:1017200015404B180418240E2ED01B0E32D0FF2C5F
:1017300034D0FF2B3AD0E4180002090210431143C1
:10174000000A090A9446C2B24A43000AC3B24B4394
:10175000000A4843110A5B181A43D2B2190A091841
:1017600001D44918641E080A7F3C23DBFE2C08DAEA
:10177000E40509061143634699416041284330BCA2
:101780007047FF20C005F9E728001B0EFF2BF6D19C
:10179000D043F4E72800FF2CF1D1F9E74002F7D15C
:1017A000FF2B01D14902F3D1E005E7E7D805490253
:1017B000E4D0EDE743020020641CDFD15B129B1CE8
:1017C000DCD9D805DAE730B405004D400122D20754
:1017D00015404B180418240E25D01B0E2CD0FF2CBE
:1017E00031D0FF2B34D0E41A000209021043114318
:1017F00043084808D10D1B1A02D2641EDB181B18BF
:10180000DB18834200D31B1A4941F9D37F3423DD0F
:10181000FF2C05DAE40548086041284330BC7047D6
:10182000FF20C005F9E728001B0E03D0FF2BF5D1E0
:101830004902F3D0D043F1E7FF2C01D14002F9D1A6
:10184000FF20C005E9E74002F4D1FF2BF8D1F1E712
:1018500028004902E2D0EDE70B0200202442DCD14F
:101860005B129B1CD9D9D805D7E743000122D207C8
:101870000118090E7F3910D449421F310FD40018C6
:1018800005D2C0011043C84000D5D0437047C00105
:101890001043C84005D440427047002070470042C2
:1018A000F3D510007047FEE7D9480078002800D132
:1018B0007047F0B587B00020049069460872D4499B
:1018C0000870D448007D4870FFF7BEFE0390D24EEA
:1018D00057E1DC4B4F22DC49701DFFF757FE701DAE
:1018E000FFF774FED949721D1018FFF74FFE711DE6
:1018F0000120FFF778FE0020C5498870C87000F00D
:10190000E9FAD3480068D3494018D149086001F08A
:10191000FDFFFFF799FE0500CA4B3E22CE49701D20
:10192000FFF734FE701DFFF751FE06901E20401B8E
:10193000039940180590D948C5490968401AFA2109
:10194000890000F0FDFC0190D548008A401BD54974
:10195000096840180090D2488088401BD249096825
:101960004318059AD149701D069C0019FFF70EFE19
:10197000711D0020FFF737FE0598002817DDC848C5
:101980008088401BC8490968401810D0C448008AA4
:10199000401BC4490968401809D0C048AC490968CF
:1019A000401AFA21890000F0CBFC002811D1A54B88
:1019B0004122A949701DFFF7E9FD701DFFF706FEE2
:1019C000D849721D1018FFF7E1FD711D0020FFF7C7
:1019D0000AFE8F4CE07800282FD00020E070FFF73F
:1019E00033FE6062AE48007F002800D171E7606A74
:1019F0006179A26A821A914202D221794118216248
:101A0000A062216A814200D3D9E00120A0708D4BF1
:101A100060229149701DFFF7B9FD701DFFF7D6FDDB
:101A2000617900912379626ABF49771D3818FFF701
:101A3000ADFD711D0020FFF7D6FD994F387F0028BE
:101A400000D13AE10398281A1E281BDD7D4B742231
:101A50008149701DFFF79AFDFFF7F6FD0090701D9C
:101A6000FFF7B4FD1E23009AB0498C46711D08187B
:101A70006146FFF78BFD711D0020FFF7B4FD039554
:101A80000120049088480068281AB988884200D24A
:101A9000A7E0049C6B4B7C226F49701DFFF776FD1D
:101AA000FFF7D2FD0500701DFFF790FDBB882A00EF
:101AB000D949751D2818FFF769FD711D0020FFF732
:101AC00092FD002C02D001206946087204F018FD36
:101AD00004F03EFDD94804F08DFD05F0C1F8012069
:101AE00000F052FA002C00D172E10025049500F0BC
:101AF000F4FA544BC2225849701DFFF747FD701D80
:101B0000FFF764FD0700434C606802F055F8009051
:101B10000191227DCA49701DC019FFF737FD711D63
:101B20000020FFF760FD3A488079052800DD01E1DB
:101B3000374A63681500083581006B50401C90716E
:101B4000207D33494A78824200D0F1E06846007A2D
:101B500000283C4B00D061E1C9223F49701DFFF7CE
:101B600015FDFFF771FD0400701DFFF72FFD22002A
:101B7000B449731D1818FFF709FD711D0020FFF708
:101B800032FD05F080F8AD4804F088FD002000F03B
:101B9000FBF9002005F090F8012005F055F9002030
:101BA00005F090F9002000F047FC002002F00BFB4C
:101BB000002005F0AFF9002005F04AFA9BE6214B22
:101BC00066222549701DFFF7E1FC701DFFF7FEFC42
:101BD000626A9D49731D1818FFF7D8FC711D00201B
:101BE00087E630480068281A398A884216D3049C50
:101BF000144B85221849701DFFF7C8FCFFF724FD20
:101C00000500701DFFF7E2FC3B8A2A008F4950E770
:101C100018020020D418002050120020A0780028BC
:101C20001CD0049C074B8E220B49701DFFF7AEFCA5
:101C3000FFF70AFD0500701DFFF7C8FC3B8A2A006C
:101C4000834936E714200008C4D60008ACC7000852
:101C5000C419002010270000242000087D480068D7
:101C60000E49884224D97C4B9722C249701DFFF748
:101C70008DFCFFF7E9FC0400701DFFF7A7FC2200B4
:101C800076A1731D1818FFF781FC711D0020FFF766
:101C9000AAFCFFF750FC049C18E700BF005C260577
:101CA00064180020F0180020BC190020A8C6000805
:101CB0000498002800D11EE6EDE7B8690399691A77
:101CC0008842654B15D3A422AA49701DFFF75EFC1C
:101CD000FFF7BAFC0090701DFFF778FCB969039A12
:101CE000AA1A8B1A009AAF49741D2018FFF74EFCF0
:101CF00074E7AB229F49701DFFF748FCFFF7A4FC77
:101D00000400701DFFF762FC2200A749731D18181C
:101D1000FFF73CFC711D0020FFF765FCFFF794FC0A
:101D20000390B8E724C70008ECC7000894C800086F
:101D3000487037E000229D4990000B18DB680F00C7
:101D400008373B50521C052AF6DB6068C861896879
:101D500005F05EFA07009648807BFFF7ADFC0100B6
:101D600094480278380005F0ABFA36D8002A00D043
:101D7000E6E600BF45A38C22520000BF7EA1701D85
:101D8000FFF704FC701DFFF721FC00BF3AA1721D94
:101D90001018FFF7FBFB711D0220FFF724FC012048
:101DA000844908709BA3D7229EA1701DFFF7EEFB0C
:101DB000FFF74AFC0400701DFFF708FC22007E4973
:101DC000731D1818FFF7E2FB711D0020FFF70BFCD5
:101DD00001207A49087007B0F0BDFFF789FC00D3F5
:101DE000AEE6002A00D1ABE628A3FF22243200BFD2
:101DF00061A1701DFFF7CAFB701DFFF7E7FB00BF75
:101E000091A1721D1018FFF7C1FB711D0220FFF791
:101E1000EAFB68480570C5E7DCC80008D02200BFAF
:101E200080A1701DFFF7B2FBFFF70EFC0400701DD0
:101E3000FFF7CCFB22006249C2E700BF1C1700205D
:101E4000D8D60008D0CA00086CC800085CC90008D1
:101E5000D4C90008C41900201420000874733A2063
:101E600025642C204461696C792052657365742067
:101E7000212E20200A0000004669726520616C61F5
:101E8000726D20646574656374656400466972658B
:101E9000416C61726D50726F6300000038B50400D0
:101EA00001F034FD04F0EFFE002000F06DF8002595
:101EB00004E000F00FF801F029FD6D1CAC42F8D2EF
:101EC00004F01EFB04F044FB04F0CAFE012000F005
:101ED0005BF831BDF8B504F03BFB3A4C55A73B002D
:101EE000F62200BF24A1601DFFF750FBFFF7ACFBFB
:101EF0000600601DFFF76AFB334D32002900631DA9
:101F00001818FFF743FB611D0220FFF76CFB2F4EF3
:101F1000300003F051FA05F0E7F92D48016804227A
:101F20000A4302600168C022D2000A430260012114
:101F3000012005F0E1F9300003F008FA04F008FB95
:101F40003B008122520000BF0BA1601DFFF71EFB6A
:101F5000FFF77AFB0600601DFFF738FB320029000F
:101F60002C31631D1818FFF711FB611D0220FFF7CC
:101F70003AFBF1BD242000085B7C25642D25737C91
:101F80003A6572726F725D0010B5124C012805D16E
:101F900005F020FA200005F0B6FA10BD200005F08B
:101FA0009EFA10BD1CCA000888CA0008180200204A
:101FB00064180020D8190020A0CB0008EC180020DD
:101FC00024CB0008501200200CD50008A8140020D3
:101FD00000700040F817002030B585B005000C00F7
:101FE00001F0F8FA00940120019000200290039083
:101FF0006946280001F0ACF905B030BD00B585B0E8
:1020000000910021019102910391694601F0A0F92C
:1020100005B000BD557372536C65657047656E659C
:1020200072616C005B7C25642D25737C3A696E6659
:102030006F5D0000536C65657050726F6365647509
:10204000726550726F6300004669726520616C6151
:10205000726D206578697400FEB5914D287E002868
:102060003AD000F03AF800F0BFF8FFF7EDFAE86177
:10207000002028768B4C00BF9DA700BF97A6330099
:1020800022223900601DFFF781FA601DFFF79EFADA
:102090009BA1621D1018FFF779FA611D0020FFF760
:1020A000A2FA330023223900601DFFF76FFA601D8A
:1020B000FFF78CFA060028690290A86801F07CFD01
:1020C00000900191EA697849601D8019FFF75EFA76
:1020D000611D0020FFF787FAF7BDF8B501F016FC87
:1020E00000F0B7F8012004F0E7FD002004F0ACFE9A
:1020F000012004F00FFFFA2001F016F905246B4DC2
:102100006B49280004F00EFE002804D1642001F081
:102110000BF9641EF4D10027002610251024644812
:10212000008804F014FF310005F03AF80600641E40
:10213000F5D13100F6208005FFF7EDFA58494860E7
:102140005B4C5C48008841000818FFF7C5FA0600A0
:10215000E068FFF7B1FA01003000FFF734FB06003A
:102160006068A168401AFFF7A7FA3100FFF7D3FAB9
:102170005149FFF728FB5149FFF7CDFA390005F027
:102180000FF807006D1EDCD1F62080053900FFF73F
:10219000C2FA00224A4905F093F801D8642216E0F9
:1021A000484905F08DF801D83C2210E0464905F079
:1021B00087F801D832220AE0444905F081F801D8B5
:1021C0001E2204E0424905F07BF800D80A22344977
:1021D00088600A73002004F06FFD012004F034FED3
:1021E000002004F097FEF1BDF8B501F08FFB01204F
:1021F00004F02EFF05200090002400251026642006
:1022000004F06BFF0700012001F08EF86320C0434B
:10221000874201D06D1CE419761EF0D12000E9B28E
:10222000092902DA6320C04301E000F075F81C4977
:10223000086108696321C943884206D1642001F01E
:1022400073F80098401E0090D6D1002004F000FFE3
:10225000F1BD80B51F492048FFF7D0FE012004F0F2
:1022600031FE322001F060F800F001F801BD10B538
:102270000020194C2169090400D5012021690907B2
:1022800002D501000220084305490875002004F02A
:1022900019FE00220F492000FFF79EFE10BD00002E
:1022A000D418002050120020BCD40008B80300202D
:1022B000900300207800F81F00F07F4542604D40F9
:1022C0006766DE403433DB406766D6400000D040AE
:1022D0009A99C94008800000000400505573725359
:1022E000656E736F7247657456616C756573000037
:1022F0005B7C25642D25737C3A696E666F5D0000FA
:1023000053656E736F7220526561647320436F6D05
:10231000706C657465640A00CA0F00D049420310EE
:102320005A400DD004B500D3404200F009F8009A9D
:10233000D20701D34942124200D5404204BD0000F9
:10234000094214D088420FD30122030C01D10004AA
:102350001204002300185B418B4200D35B1A5241E8
:10236000F8D319001000704701000020704708B52D
:1023700005F066FA08BDFEE738B50100AA4C20005A
:10238000282205F05FFA25682868016810220A43B0
:102390000260816801220A438260280003F0CCF8C1
:1023A0008022920021003431280003F092F8A568C1
:1023B0002120225C606981B2280001F00BF9202005
:1023C000225CA06981B2280001F004F92320225C7C
:1023D000E06981B2280001F0FDF8FA20400000F029
:1023E000A3FF31BD38B5904C2568002D05D02800DD
:1023F00003F0A2F8280002F0DFFF2020205C421E3C
:102400009241D20F206981B2606801F0E3F8212087
:10241000205C421E9241D20F606981B2A06801F037
:10242000D9F82220205C421E9241D20FA06981B2CD
:10243000E06801F0CFF831BDF8B5070080267601DD
:1024400075002C09012826D105F03AFA764F386834
:1024500000680021C9430162016810220A4302603A
:10246000816801220A438260704803F0FCF8220070
:10247000390034316D4803F02CF86D480460FA20BF
:10248000800000F051FF6B488561FA2000F04CFF9E
:102490006848866132E0654802F08EFF6448390082
:1024A00001D0046000E00461FA20800000F03CFFED
:1024B000380002D05F48856101E05E488562FA20FD
:1024C00000F032FF5B4D002F01D0AE6100E0AE6244
:1024D000A024E40500220421200000F013FF0022C4
:1024E0000821200000F00EFF00224021280000F00B
:1024F00009FF00228021280000F004FF0022B10023
:102500004C4800F0FFFEF1BD38B54B4DFA24A40055
:1025100023001422290049A000F0A4FC002809D0BF
:1025200023000322290000BF03A000F09BFC002829
:1025300000D0012032BD0000415445300D000000A4
:10254000FEB5002400903C4D3D4E0CE096235B0010
:10255000052229463CA000F085FC002808D1FA207D
:10256000800000F0E1FE641C152CEFDB0020FEBDB6
:1025700002AB01AA3349304605F06AFA0228EED1CF
:1025800001982028EBD20099087096235B00052261
:10259000290000BF2EA000F065FC0028E3D000BF9A
:1025A0002DA1300001F021FB0700DCD04021009874
:1025B000401C01F031FB0098421C00BF29A13800EB
:1025C00005F046FA0128CED196277F003B00052270
:1025D000290000BF28A000F045FC0028C3D020211E
:1025E0000098613001F018FB009A613228A1300098
:1025F00005F02EFA0128B6D13B000522290000BFC4
:1026000020A000F02FFC0028ADD020210098413000
:1026100001F002FB009A41321DA1300005F018FACA
:102620000128A0D1FEBD000010050020B815002033
:1026300018080050000400505C2E000841540D00A2
:10264000500B0020F4CF000841542B4353510D0090
:102650004154490D000000005265766973696F6E40
:10266000000000005265766973696F6E3A20255B41
:102670005E0D0A5D0000000041542B4347534E0D90
:102680000000000041542B51434349440D00000019
:102690000D0A255B5E0D0A5D00000000F0B5B7B0C5
:1026A0000400BD482100C02205F0CCF8BB4EFA273B
:1026B000BF000094152402E0380000F035FE641ECF
:1026C00000D1FAE03B0005223100B54800F0CAFB1A
:1026D0000028F1D001AB02AAB249B34805F0B8F91D
:1026E0000228E9D101980128E6D1B04800780228F3
:1026F0002ED1009AAE49AF48FEF748FF3B000522B5
:102700003100AC4800F0AEFB0028D5D03B000522DC
:102710003100A94800F0A6FB0028CDD0152402E026
:10272000380000F001FE641E4FD03B00052231004E
:10273000A24800F097FB0028F2D001AB02AAA04902
:10274000994805F085F90228EAD101980128E7D1D6
:10275000152439E03B00052231009A4800F082FB45
:1027600000282ED03B0005223100974800F07AFB6C
:10277000002826D08F4D0098036F024630329349CF
:102780002800FEF703FF924B05223100280000F0DD
:1027900069FB002815D0844D8E49280001F025FAE8
:1027A000002805D18C49280001F01FFA002808D024
:1027B0003B0005223100894800F054FB002800D07E
:1027C00090E0380000F0B0FD641E76D077480078C5
:1027D0000228BFD0009A82497648FEF7D7FEAD485E
:1027E00005F075F93B0005223100724800F03AFB14
:1027F0000028E6D03B0005223100A74800F032FB5C
:102800000028DED03B0005223100A44800F02AFB5E
:102810000028D6D03B0005223100A14800F022FB61
:102820000028CED09F4B052231009F4800F01AFBB4
:102830000028C6D09B4D2B00052231005F4800F0D8
:1028400011FB0028BDD0584801AB02AA5C4905F035
:10285000FFF80228B5D101980128B2D12B0005223A
:102860003100AD4800F0FEFA0028AAD0009F894848
:1028700005F02DF94F4C3B6F3A003032A74920004C
:10288000FEF784FEA64B01223100200000F0EAFA98
:10289000002812D00020A34908850C68200002F00F
:1028A0004BFE80229200A049200002F012FE00F0B0
:1028B000B3FE9E4C0500009702E000206AE0207005
:1028C00000F0AAFE401B9A498842F6D200F044FB71
:1028D00020780028F4D000BF42A1334801F085F9E8
:1028E0000028ECD0009C2C482100C02204F0AAFF54
:1028F000802117A801F090F901A88E49582204F010
:10290000A1FF01A80421017221008431119121004D
:1029100094311491210074310491A42161580183F0
:1029200001258576008B7F49086301AA802117A8BD
:1029300005F016F981B217A800F046FB0028BCD0BC
:1029400000F06AFE7C4E040000F066FE001B784931
:102950008842B2D200F09AFB0021C9438842ACD031
:102960003200802117A805F0B7FA0228ECD18023A5
:1029700017AA694600A8401C05F09AF901289CD1C5
:1029800068460078002898D168488570012000F0DA
:10299000A5FF012037B0F0BD501300205C2E0008C9
:1029A0000CD00008F4CF0008500B002034050020A4
:1029B00018D000085011002030D0000840D0000886
:1029C0004CD0000860D0000870D0000880D000080B
:1029D000881300009CD00008A8D00008B8D00008D8
:1029E000C8D00008434F4E4E45435400F2B588B05E
:1029F00005004E488078002849D0002680277F00B7
:102A0000380001F039F8040040D004A80C2101F08E
:102A100003F9049508A8029004A8019001200090F1
:102A2000012300223900200005F09AFA81B220002B
:102A300000F0CAFA002826D000F0EEFD050000F0F4
:102A4000EBFD401BAD4988421DD200F01FFB002169
:102A5000C943884211D0384A3900200005F03CFAB9
:102A60000928ECD10197009403AB07AA012102A821
:102A700005F0C2FA0398002804D0200000F0D2FD2F
:102A8000002004E00126200000F0CCFD300009B059
:102A9000F0BD000060190020E0D00008F0D0000870
:102AA00000D10008B80B00000CD10008F8B58CB0BC
:102AB0001E4B9B78002B01D100202BE00892079140
:102AC0000700B14D8026B6003100280001F0A4F8BF
:102AD000002409A80C2101F09FF809970798FEF738
:102AE00075FD06900798059009A802AA0AC80AC2AF
:102AF0000368136001940094089B002231002800B1
:102B000005F0D8FA81B2280000F05EFA002800D063
:102B1000012420000DB0F0BD18D1000824D1000818
:102B2000C0D4010010050020440500205D190020DC
:102B30003075000064D400081D310008F8B58CB071
:102B4000924EB078002800D1D5E0914F81208000CE
:102B50003858002804D100F05FFD812189007850A9
:102B600000F094FA00F058FDAE4909680024AE4D1B
:102B7000CA0F5118491081229200BA58801A814216
:102B80004BD200F049FD812189007850B0780028AF
:102B900040D078780B2805DB00207870B07000F00A
:102BA0009DFE37E0A1492420285C022827D1FA2382
:102BB0009B0003229E4800F055F9002827D09D492C
:102BC0009D4801F012F8002801D07C7022E09B495A
:102BD000994801F00AF800280BD19949964801F06C
:102BE00004F8002805D19749934800F0FEFF00281B
:102BF0000DD00020B07000F071FE2C850AE0FA23A1
:102C00009B000322904800F02DF9002802D178782B
:102C1000401C787000F0B2FA2C8500F0FDFC812198
:102C2000890079184968401AFA218900FFF788FB62
:102C3000296B490888420CD300F0EEFC8121890001
:102C4000791848600023002280A100BF2CA0FFF764
:102C50002DFF688D00284ED08026B60031008D20D3
:102C60008000281800F0D8FF794A31008D208000BC
:102C7000281805F031F903283DD104968D208000F5
:102C80002818039006A8029007A8019009A80090B0
:102C900005AB9B1C05AA08A905A8401C05F058FA1D
:102CA000012828D10A98802803DA06987100884202
:102CB00004DBEC626C8500F061FA1CE000F0ACFC17
:102CC000812189007850069883B2079A0A9881B2C8
:102CD0000B9800F0DFFD0B980090FEF777FC0500E5
:102CE000B54208D232000099381D04F0C5FD381DE8
:102CF0004455012038700DB0F0BD0000881300006D
:102D00006B656570616C69766500000080B50020B8
:102D10001E498870FA239B004E480078022803D190
:102D200003224DA103A002E00322404905A000F0C8
:102D300099F801BD41542B434950434C4F53450D25
:102D40000000000041542B5149434C4F53450D00A6
:102D500038B535480568002D15D029681F24CA6983
:102D6000224010D0C969C90606D480229200010011
:102D70003431280002F0ADFB2868016A0C4304627C
:102D800001200249487031BD440700205D19002030
:102D900044090020F8B5244C2420205CFA26760053
:102DA000002813D0012811D02220255CE768A469EF
:102DB0002A00A1B2380000F00DFC300000F0B4FA97
:102DC0006A1E9241D20FA1B2380021E02320205C7C
:102DD000421E9241D20FA568E06981B2280000F03E
:102DE000F9FB300000F0A0FA2020205C421E924146
:102DF000D20F6769B9B2280000F0ECFB300000F098
:102E000093FA2120205C421E9241D20FB9B22800D1
:102E100000F0E0FB300000F087FA4E4800F084FA42
:102E2000F1BD0000F4130020100500205C2E000806
:102E300088D1000898D10008500B0020A4D10008C8
:102E4000ACD10008B4D10008C0D100086100000076
:102E50001D310008340500204F4B00000D0A4F4B78
:102E60000D0A0000F7B584B01F000025019507E0AA
:102E70002BA1544800F0B9FE002833D00596270056
:102E80000198401C01906846007E0199884227DB2A
:102E900000F04AF8B1480468200002F04DFB80229F
:102EA0009200AF49200002F014FB0020AD490870E9
:102EB0000498FEF78BFB06000498FEF787FBB10031
:102EC0008B1982B20499200002F096FA00F0A4FB5C
:102ED000059E3C0069460D7002900025A14F02E05E
:102EE00000201AE03D7000F097FB0299401AA042C2
:102EF0000CD200F031F838780028F4D03100314895
:102F000000F073FE0028B3D0012505E005962700E8
:102F1000684605782800B3D0280007B0F0BD00004F
:102F20004552524F5200000038B500208D4948707C
:102F300008708A4D2885234908702C68200002F00B
:102F4000FBFA8022920029003431200002F0C1FAFD
:102F500031BD000088130000F8B5824E707800285B
:102F60002FD0814804F0B3FD7C4C27685820385A94
:102F70005A21795A401A0090208D00250099411855
:102F800080229200914201DB00200EE0009A210095
:102F900034310C4B181804F06FFC208D0099401848
:102FA000084A83B2D554012131702085380002F0DF
:102FB000C3FA8020820021003431380002F089FAFF
:102FC0007570F1BD500B0020F8B505000C00674886
:102FD0000078022802D1220022A102E0220000BFD4
:102FE00024A16348FEF7D2FA624B012262A1604835
:102FF000FFF738FF002833D0290022005C4804F096
:103000003BFC1A205A490855641C68460480022477
:10301000544F0026641E23D0FFF786FF3E7068469B
:1030200003881A4652494D48006802F0E5F900F05D
:10303000F3FA050000E03E7000F0EEFA401B4D4947
:103040008842E7D2FFF788FF38780028F4D000BF25
:103050000CA19B4800F0C9FD0028ECD00120F2BD76
:103060000020F2BD41542B43495053454E443D2569
:10307000640D000041542B514953454E443D256495
:103080000D00000053454E44204F4B0070B5FFF734
:1030900063FF324C208D00282BD00025884E00BFC6
:1030A00015A12420205C02280BD1300000F09DFDEA
:1030B00000280BD113A1300000F097FD002815D196
:1030C00017E0300000F091FD002808D000202549CD
:1030D000887000F003FC25850020C04370BD00BF50
:1030E0000CA1300000F081FD002802D000F046F86D
:1030F0002585002070BD00000D0A434C4F53454408
:103100000D0A00000D0A2B43495052584745540DF3
:103110000A0000002B51495244490000F0B502005A
:10312000002300200D4C658D002D15D08D4200DC54
:103130002900E56A634E1000002203E0AF18F75D36
:103140008754521C8A42F9DB08002918628D91428B
:1031500001DB00216385E162F0BD00001005002065
:10316000440500205D19002060190020340500206E
:1031700050110020881300003E000000F0B589B017
:10318000002400944E4E504D2420285C02280BD180
:103190004E4FFA239B00032239004D48FFF762FE91
:1031A000002817D0390017E080218900300000F096
:1031B00033FD484F80214900380000F02DFD46497D
:1031C0003800FEF7E3F9454B052245493800FFF783
:1031D00049FE002871D04249300000F006FD06008B
:1031E0006BD0384F2420285C02286A462CD13D49F8
:1031F000300004F02DFC01285DD100988021890069
:10320000884258DA288D0099884254DB002952D030
:103210000A4600BF34A101A8FEF7B8F901A8FEF7DD
:10322000D5F93018698D009A891880229200914250
:1032300001DBEC626C8500998C4237DA698D0919E3
:10324000025D7A54641CF6E72AA1300004F000FC09
:10325000012830D180208000009981422BDA298D0D
:10326000009A914227DB002A25D0002132780A2AD1
:1032700006D0761C491C2A8D8BB29A42F6D200E009
:10328000761C89B2491E2A8D914214D0698D009A0C
:103290008918814207DBEC626C8504E0688D0019B7
:1032A000315D3954641C00988442F7DB688D0099C5
:1032B0004018688501E0EC626C8509B0F0BD000043
:1032C000500B0020500D00201005002054D10008A4
:1032D00040D10008501100205CD10008B80B00005C
:1032E00070D1000878D100080D0A2B4950442C25D4
:1032F000643A0000252A5B5E2C5D2C5443502C253B
:10330000640D0A0030B585B005000C0000F062F9CC
:10331000009401200190002002900390694628004B
:1033200000F016F805B030BD38B5050000F074F9AE
:1033300004000020C043854202D0044800782D18C4
:1033400000F06AF9001BA842FAD331BD000000204A
:10335000FFB500220F2302932DE0062403E0A64CC4
:10336000A042FAD105246D462D78AC403443019D2E
:103370002C60A24CA668DC4326404D68ED0200D5C7
:103380001E439E4DAE60EE6826404F68BF0200D5DA
:103390001E43EE606E6826404F68BF0300D51E4393
:1033A0006E602E6834404E68F60302D526001C007D
:1033B00034432C60521C0B681C00D44000D190E0B8
:1033C000012494402340F5D055000327AF40FE432D
:1033D00001964E68B707BF0F012F03D0B607B60F8F
:1033E000022E0ED18768019E3E40CF68AF40374322
:1033F00087604668A6434C68E706FF0F974037434F
:10340000476094006E4674700C79A407A40F032CD7
:1034100026D0C468019E26408C68AC403443C4600A
:103420000C79A407A40F022C1AD1D408A400041903
:10343000266A03966E4677781C263E406F463E709D
:10344000039EB446029F6E463678B7406646BE433A
:10345000B4460F696E463678B740664637432762F2
:1034600007680324019E3E404F682740BC462F005A
:103470006546BD40354305604D6826042E4099D011
:1034800001255F4E36682E435D4F3E605D4E9708C6
:10349000BF00F6190196019E366803966E4677784E
:1034A0000C263E406F463E70039EB446029F6E4619
:1034B0003678B7406646BE43A027FF05B84201D123
:1034C000002450E7504FB84201D101244BE74F4D43
:1034D000A84201D1022446E74D4DA84200D03EE764
:1034E00041E7FFBDFFB5032302930123019303913D
:1034F00000213EE0062703E03F4DA842FAD1052710
:103500008D00B4460C262E40B740BC4515D1D6439D
:103510003A4A12683240394F3A603A46526832406D
:103520007A603A46D2683240FA603A46926816406B
:103530003A4696601A68A2431A60029A4B009A4073
:10354000036813430360CB089B00C3181C6A0F2653
:103550001C272F40BE40B4431C62D343C2681A40AC
:10356000C2604268009CA24342608268134083604C
:10357000491C039ACA4026D0019A8A400092039BB4
:10358000009A1A40F4D01F4B8C08A4001B191E6827
:103590000F248D000C272F40BC402640A025ED05B0
:1035A000A84201D10027ABE7174DA84201D1019FE6
:1035B000A6E7164DA84201D10227A1E7144DA84263
:1035C0009AD1029F9CE7FFBD0069084000D001200E
:1035D000C0B27047002A01D0816170478162704794
:1035E00001000C4A13680B4000D1704780B5116090
:1035F00004F0FEFD01BD0000001C0050000401406D
:10360000341002400800014000040050000800503F
:10361000000C00501404014001484068704700BF8E
:103620000000002080B500F07FFA01BDF8B5FA2057
:103630004000FFF779FEB84C7FA39822520000BFEC
:1036400082A1601DFDF7A2FF601DFDF7BFFF00BF57
:1036500082A2B249631D1818FDF798FF611D002072
:10366000FDF7C1FF0024BE4D7EA60022315DA00003
:103670002818BC235B00C058FFF7ACFF641C142C57
:10368000F3DB00F0C9FCB74803F03DFF00F04CF954
:10369000942040002C18A020C005E063A063606364
:1036A0001021A1642021616440212164BD4ABE4BE8
:1036B000536090608B00D36001261674002353740E
:1036C000BA4BE3640023A3842363A362E362B84B91
:1036D0006360A66026735061880190610023D36106
:1036E00026702B00E033B34F1F6110271F62B14FCC
:1036F0005F6108275F62AE4F9F609961AD49D960F5
:10370000C100D9615670167029007031AA4A0A6545
:10371000A84A8A65486640008866DE704F65700278
:1037200008665E701E709E70DE7000201871A348DF
:1037300008601E20486300BFC6A12800FDF726FFD1
:10374000C7A128003030FDF721FF9D482A1800BF8F
:10375000C7A128007430FDF719FF9A4F38000830D0
:103760000021002206C096213800183000F054FADB
:103770000020386094488188B980C188F980017F31
:103780003974816979613900AE3102890A80828990
:103790004A80827A8A80008AC88086482061666171
:1037A0002676E06104202062FDF71CFF2800E83047
:1037B00003F06EFB86204000281803F03AFCBA2084
:1037C0004000281803F06CFA8E204000281803F0FF
:1037D0002BFB96204000281803F08EFBAE20400003
:1037E000281800F0D5FC2800C030FEF7C5FD9C204D
:1037F0004000281804F00FFD002003F05DFA0120BE
:1038000003F022FB002003F085FB002003F020FCE6
:103810000020FEF711FE002000F0D5FC00F0F7FCC0
:10382000002003F04FFBFDF747FDFEF712FDFDF70B
:1038300059FD00F0ADF8F1BD50726550726F6365CF
:1038400073736F7250726F63000000005B7C2564BD
:103850002D25737C3A696E666F5D000076352E33D8
:103860000000000001028000000220000004088027
:10387000000000000004010280B5544804F027F95C
:1038800000F072F8FEF710F8FEF7E6FBFCF718FC04
:1038900001BD0000F3B583B017001E001E4C4C4D57
:1038A0002B004A2252A1601DFDF770FE601DFDF73E
:1038B0008DFE01970096039B69460A8A29002831EC
:1038C000651D2818FDF762FE611D0120FDF78BFEC6
:1038D00040480188491C018005B0F0BD38B505009D
:1038E0000D4C3D4B532200BF41A1601DFDF74EFE24
:1038F000601DFDF76BFE2A0042A1631D1818FDF73D
:1039000045FE611D0120FDF76EFE31BD80B52F48DB
:1039100004F0DDF801BD000050120020FCD50008C5
:1039200080B5FDF708FE01BD38B5FDF78DFE050039
:103930002A4805602A4C00BF38A36A223DA1601DB9
:10394000FDF724FE601DFDF741FE2A003DA1631D29
:103950001818FDF71BFE611D0220FDF744FE31BD66
:1039600044020020F81700201E480078002800D0EC
:10397000704710B51C4CFFF74FFE2168401A1B49D9
:10398000884204D3FFF748FE206000F001F810BD24
:1039900010B5144C04F04EFC2070002801D004F047
:1039A0005FFC10BD4C03002030150020C016002025
:1039B0000008005000040050B81500207F98000057
:1039C000290200003C01002064180020601900203A
:1039D0008CD300084A190020F4D60008D41800201F
:1039E00050120020AE190020CC19002089130000CD
:1039F0005B7C25642D25737C3A7761726E696E67F6
:103A00005D000000436F6E6E656374696F6E2073B6
:103A10007461747573203A202564000055737253E5
:103A2000797374656D557064617465547356616C17
:103A3000756573005B7C25642D25737C3A65727215
:103A40006F725D0053746172742074733A20256440
:103A500000000000696E7465726E657400000000FD
:103A600039352E37302E3230312E393600000000F5
:103A700025732D6765736B0010B5040000BF00BF90
:103A8000200000F005F8040000BF00BF200010BDBA
:103A900038B504000F3407218C43A0422BD2082CE8
:103AA00004D2082402E0083000F049F841490A68CD
:103AB000100005D1002207E01D68A5420DD2181D97
:103AC0000368002BF8D11268081D00E0181D036878
:103AD00093420CD01D68A542F8D300280BD0026891
:103AE0001368083BA34208D2536803600FE004F058
:103AF000DBFB0028D7D1002032BD131903605368C7
:103B0000151D2B5113681B1B05682B601460006882
:103B1000002804D04368002B01D0001D00E00020E5
:103B200008601000083032BD10B5040006D000BF98
:103B300000BF200000F003F800BF00BF10BD002848
:103B400000D1704770B408380268072A30D951078D
:103B50002ED118494B68002B01D0984203D2436004
:103B6000486017E02B005D68002D01D08542F9D335
:103B70001D685E19B0421BD3864203D1A818186095
:103B8000180007E05C68002C02D0821894420FD322
:103B9000446058604268002A0AD00368C4189442FE
:103BA00006D100240C601168591801605168416009
:103BB00070BC7047B0190020012212060118CA42D9
:103BC0000AD28A420DD83822120609098918C20F72
:103BD000D20711434007704700D049080909014343
:103BE00001E0C10FC9070020704770B50D78002DA6
:103BF00011D00C0004E0491C0E78964207D0401CFE
:103C0000290000F01BF8002805D0010023005B1CF0
:103C10001A78002AEFD170BD002200BF094202D0FD
:103C2000491E4254FCD1704702780B78002A03D019
:103C3000401C491C9A42F7D0D01A7047C9B202788A
:103C40008A4203D0401C002AF9D100207047FEE7C9
:103C5000A4460024521E0AD30B5D0355641C1B426C
:103C6000F8D1521E03D30355641C521EFBD2644686
:103C70007047FEE7FBB584B0002A00D1F0E004A84D
:103C800003C87AA430CC04400D4002D1002C00D1EE
:103C9000E6E00800410049150023DB43994202D1C8
:103CA000000300D1DCE00020B549002A5AD5544277
:103CB0002B4D7D44AA3508260AE0E20705D502000F
:103CC0000B0003CD083D04F005FB64080835761EA3
:103CD000002C01D0002EF0D106000F006A4604A887
:103CE00003C804F0B9FB009D32003B0004F0C9FB9F
:103CF0002A0004F027FC04AA03C25CA6C0CE04A8D4
:103D000003C8394002D1002800D18EE004A803C8BE
:103D1000080041004915B14202D1000300D184E0FE
:103D2000002C00D181E004A803C86A4604F094FB8B
:103D3000009D94A20CCA04F0CDFA2A0004F002FC03
:103D400032003B0002400B4001D1002A6BD04B00F7
:103D50005B15B34201D10A0365D0641E63D0E4E76A
:103D6000E098000061DD404D7D44FF35ED1E0826E2
:103D7000012714003C4205D002000B0003CD083D92
:103D800004F0A8FA64100835761E002C01DD002E20
:103D9000F0D1260004000D006A4604A803C804F010
:103DA0005BFB009F22002B0004F094FA3A0004F021
:103DB000C9FB04AA03C22DA003C802AA03C204A817
:103DC0000CC802A803C81040194001D100282CD00B
:103DD00004A803C808000027FF4341004915B94261
:103DE00001D1000321D0002E1FDD04A803C8340038
:103DF0006A4604F031FB009D64A20CCA04F06AFA22
:103E00002A0004F09FFB02AA0CCA02400B4001D119
:103E1000002A08D04B005B15BB4201D10A0302D037
:103E2000641E002CE4DC04AA03C204A803C80FA289
:103E30000CCA02400B4001D1002A08D00800410002
:103E400049150022D24391420AD1000308D1069CB1
:103E500000BF00BF002C03D0206801210143216076
:103E600004A803C807B0F0BDD8970000FFFFFFFF0C
:103E7000FFFFFF7FF9B587B01500002B01D00020B0
:103E800018600E00079C07A804F094FB0107CA0FF6
:103E90000592082188430495012829D10220009029
:103EA00001AB32000799200004F010FC050002D19C
:103EB0000020002117E0029804F002FD022D12DB21
:103EC00001AC08346D1E0022324B04F003FA0600E8
:103ED0000F00206804F0F4FC32003B0004F0FAFC10
:103EE000241D6D1EEFD1089B049A019C12192EE02F
:103EF00002282FD1009001AB32000799200004F076
:103F0000C3FD050002D1002000211BE0029804F04F
:103F1000D7FC022D16DB01AC08346D1E02000B002D
:103F200000201D4904F0D6F906000F00206804F0B7
:103F3000C7FC32003B0004F0CDFC02000B00241D46
:103F40006D1EEDD1019A04F0FDFA089B049AFFF76B
:103F500091FE0CE0032802D10020104907E004285C
:103F600003D10020C043410801E000200021059A50
:103F7000002A02D080221206514009B0F0BD000094
:103F80000000F03F436FAC642806C80A3CBF737F53
:103F9000DD4F157565CDCD410000B0410000F07FCB
:103FA00080B50023FFF766FF04BD80B50022002125
:103FB000FFF7F6FF04BD012252054B18DA4201D982
:103FC000581570475B0D0722D2019B1A10D9FF2BA1
:103FD0001DD2DB050122D2070A4013430903020D5B
:103FE0001143490AC200524100D9491CC818704700
:103FF0000AD1800A0A0302435212921C04D9D30741
:104000000B40D00518437047C80FC0077047C80F52
:104010000002FF30C005704738B5484C2822210007
:10402000474800F095F82721200000F098F845490E
:104030000870454D2068A84206D12721200000F0D5
:104040008EF8217D884233D025607820A0804620DC
:10405000E080FA20400020810A20A0726420A08124
:104060000520A0730320E0733C212182618200209F
:104070002075A16101212177902161775F21A177CE
:10408000E07740212022A15430212122A154222175
:104090006054232160547F212422A154252160549F
:1040A00014202621605402202721605400F007F8D4
:1040B000208A2649884201DB481E208231BDF8B59E
:1040C0008CB000206946087027211C4800F047F892
:1040D0001A4908750E461A4F04F0F2FD0025052412
:1040E000E8190190725D0146002004F007FE019876
:1040F0000078715D884201D0641EF1D16D1C282DBD
:10410000EDDB04F0F2FD282202A9380000F020F8CF
:10411000307D02A9097D884208D068460078401C9D
:1041200069460870684600780528D5DB684600783F
:10413000052801D1FFF7F4FB0DB0F0BD6418002095
:1041400000000808AD190020DDCCBBAA85030000E3
:1041500080B503000800190003F08EFB01BD70B5A7
:104160000200002300200DE0145D5B1C08252600E2
:1041700046404008F60702D506008C2070406408CF
:104180006D1EF4D19CB28C42EED3C0B270BDFEE77E
:1041900010B501003D4C2000182203F053FB002213
:1041A000E06881B22068FFF715FA0022206981B229
:1041B0006068FFF70FFA0022606981B2A068FFF71C
:1041C00009FA012010BD10B50100304CE3682068E9
:1041D00001290BD1012299B2FFF7FCF901222069D4
:1041E00081B26068FFF7F6F901220AE0002299B275
:1041F000FFF7F0F90022206981B26068FFF7EAF961
:104200000022606981B2A068FFF7E4F910BD204880
:104210004021016020210160102101607047F1B54B
:104220001C4C402727612025256110262661276028
:104230000098FFF779F82761C8277F003800FFF75B
:1042400073F825600098FFF76FF825613800FFF7D5
:104250006BF826600098FFF767F826613800FFF7D3
:1042600063F8F1BD70B504000A4D40262E61202090
:104270002861102028612E602000FFF755F82E617C
:104280002000FFE7FFF750F870BD00000C19002078
:104290002800005018000050FCB587B00C00150035
:1042A000002B01D0002119600390064600E0761C27
:1042B000307804F053FD0028F9D1300001782D2921
:1042C00001D02B2903D16A461170401C02E02B213A
:1042D0006A4611700194002D03D4012D01D0252DC3
:1042E00004DB002C54D00398206051E0002D0ADD3F
:1042F000102D16D10178302913D1417820220A439C
:10430000782A0ED10AE00178302901D00A2508E088
:10431000417820220A43782A02D11025801C00E02F
:104320000825069000E0401C01783029FBD00024CD
:1043300005902B4A7A44A83228326B465A7002956F
:10434000049F05000494264E7E44943608E00494AD
:1043500069464978471AFFB202984443E4196D1C34
:10436000287804F004FD029A01003000283004F09F
:1043700007FD0028EBD1029938002F00049D069A12
:10438000BA4207D10198002802D003980199086029
:10439000002022E0059ABA1A735CD21A002A11D4BE
:1043A00005DC201A03D3FDF7CBFFA8420AD000BFDB
:1043B00000BF0898002802D0012008990860002456
:1043C000E44305E0684600782D2801D160420400EE
:1043D0000198002800D00760200009B0F0BD00BFA0
:1043E0007C91000080B50023FFF756FF02BD80B529
:1043F000FFE70A220021FFF7F5FF02BD01002020A0
:1044000008437047FDB5B2B03A98049102A93B2227
:10441000885400200D9024A8401C2F900DE0049893
:10442000329A90470490002801D100F0B7FE0D9811
:10443000401C0D903398401C33903398017800292C
:1044400010D02529EBD100200790089009900A9000
:104450000B900C900021022401201490082012904F
:10446000339D05E00D9800F09BFE08001499014370
:104470006D1C28782028F8D023280BD02B2804D0B6
:104480002D2804D0302808D00AE02143F0E70800A6
:104490000421ECE708000821E9E708001021E6E71D
:1044A0002A280FD1349802681068121D349B1A60B4
:1044B0000F90002804D542420F92080004210143C6
:1044C0006D1C12E000200F90644A09E00F9B93429C
:1044D00005DA9E00F3185B00181830380F906D1C39
:1044E00028780300303B0A2BF0D328782E2803D0FD
:1044F0000020C0430E9027E06D1C28782A2808D1A0
:10450000349800680268001D349B18600E926D1C80
:104510001AE02D2802D12D226D1C00E0002200207F
:104520000E900CE0002A09D10E9B4C4EB34205DAE6
:104530009E00F3185B00181830380E906D1C287818
:104540000300303B0A2BEDD302A801872E783100FF
:1045500040487844FF30401EFFF770FB002801D030
:104560006D1C00E0002602A83A214654405C6828F1
:1045700004D1287868280BD1622005E06C2807D187
:1045800028786C2804D1712002A93A2288546D1C25
:1045900015A80690287869460870681C339068460C
:1045A00002781000253833D01C3800D1CCE1001F30
:1045B000022800D8C8E1133801D100F019FD0938EC
:1045C00000D1C1E1801E01D100F0AFFD401E01D13C
:1045D00000F05CFD401E022800D8B5E1001F01D1AB
:1045E00000F054FD401F00D108E1401E01D100F051
:1045F000FFFC401E00D1F0E0C01E0ED0801E01D195
:1046000000F0F6FCC01E01D100F0F2FC00F098FDB5
:1046100014980790252015A97CE134980068046857
:10462000001D349908600594002C00D0C1E002A858
:104630003B21405C002800D1B5E00024E44306485B
:104640007844143004F0A8FB201A01D000F0A6FD35
:1046500000F083FDA48D0000D88D0000CBCCCC0CE5
:1046600001236A4602A9280000F054FE002801D068
:1046700000F094FD641EF3D13295079D15AC002D1A
:104680000FD0329E21780498B0470490002801D1C1
:1046900000F084FD0D98401C0D90641C6D1EF1D13E
:1046A00032963020694608700A9C002C0DDD329D40
:1046B00001236A4602A9280000F02CFE002801D040
:1046C00000F06CFD641EF3D13295059C089D002D11
:1046D0000FD0329E21780498B0470490002801D171
:1046E00000F05CFD0D98401C0D90641C6D1EF1D116
:1046F0003296302769460F700B9C002C0DDD329DE1
:1047000001236A4602A9280000F004FE002801D017
:1047100000F044FD641EF3D13295059808994418C1
:10472000099D002D0FD0329E21780498B047049047
:10473000002801D100F032FD0D98401C0D90641C42
:104740006D1EF1D13296684607700C9C002C0DDD71
:10475000329D01236A4602A9280000F0DBFD0028F3
:1047600001D000F01BFD641EF3D1329502A8382160
:10477000405C400700D460E620206946087001983C
:10478000002800DC59E6019C329D01236A4602A9FB
:10479000280000F0BFFD002801D000F0FFFC641EDF
:1047A000F3D1329549E61B4878446830059000F013
:1047B000D4FC0E9D002D03D52000FCF707FF09E077
:1047C0002A000021200004F0DBFA002801D0001BA1
:1047D00000E02800089000F0C0FC349800680268EF
:1047E000001D349908600020C0430021104002AA37
:1047F00003C215A80590782100F093FC02A83B2184
:10480000415C002908D00024E4434B487844FF3041
:10481000293017E7388C00003A21405C62286AD0C2
:10482000682819D06A2845D06C2806D071284FD046
:10483000742831D07A2821D06FE03498006801685C
:10484000001D349A106000297AD10024E4433B48CB
:104850007844FF301738F5E6349800680168001D89
:10486000349A1060002905D10024E4433348784489
:10487000CA30E7E60D98088000F06FFC34980068B5
:104880000168001D349A1060002959D10024E443C6
:104890002A487844A630D5E6349800680168001D9F
:1048A000349A106000294BD10024E4432348784413
:1048B0008A30C7E6349800680268001D34990860A1
:1048C000002A13D10024E4431C4878446E30B9E632
:1048D000349800680268001D34990860002A05D1E8
:1048E0000024E443154878445230ABE60D98C117D4
:1048F00003C200F032FC349800680168001D349A4D
:104900001060002905D10024E4430C4878442C3081
:1049100098E60D98087000F020FC34980068016853
:10492000001D349A106000290AD10024E443034892
:104930007844083086E600BFC88A0000DC8A0000A0
:104940000D98086000F009FC34980068C31D07202A
:1049500083433498036003CB349D2B6002AB03C3C5
:104960002023C80F04D007982D2115AB19540DE052
:1049700002A8008F204204D007982B2115AB1954B0
:1049800004E0C00704D5079815A90B54401C0790F4
:1049900015A80799401813901398059024AD02A804
:1049A000C0C868460078202101436846817080783D
:1049B00061280BD00E98002801D5062005E005D10E
:1049C00068468078672801D114980E9002A803C821
:1049D00008004B005B150024E443A3420ED10903F9
:1049E0000CD003200890613A1A2A03D2194979445D
:1049F00062310FE0184979445E310BE0A3420ED1D9
:104A000000030CD103200890613A1A2A1DD31349E0
:104A1000794448310322139802F02EFF9DE301AA46
:104A200002A803C803F018FD02AA03C268468078F2
:104A300061281CD1059830210170811C05916946BF
:104A4000097861290ED178210DE0054979441031AA
:104A5000E0E700BFFC890000FC890000008A00003C
:104A6000F8890000582141700798801C079002A81F
:104A700003C82246530802400B4004D1002A02D149
:104A80000024002652E168468078612800D099E031
:104A90000E98002801D5212000E0401C13901398A7
:104AA000401C2E90300039000022002304F098F9B9
:104AB00002A830C802D28020000645400198001F9D
:104AC000019024A90A7024A8461C2E98002832DDE3
:104AD0002E9F20002900002280235B0304F099F917
:104AE00029D81C2203F02EFD04000D0004F0AAF9C1
:104AF0002E90FF1F002F09DD03F0E2FE02000B00E5
:104B00002000290003F049FF04000D00F01D0721DB
:104B10002E9A002A0ADD491E08D4401E13071B0FD7
:104B200003701211F5E7401E00220270491EFAD5EB
:104B3000C61D002FCDDC24A82F99711A24AA551C5C
:104B4000139A0C00914200DD1400002C33D48C42E7
:104B500005DA411C095D082901DB0F2100E0002175
:104B6000220024AB9B1801E0641E5B1E521E1E78BF
:104B70008E42F9D00F2904D1411C895C491C401C8C
:104B80008154002A04D524AD641C0198001D0190B5
:104B9000611E10D46A186846007813783033DEB28C
:104BA0003A2E01DBC318C6331370491E521E00296A
:104BB000F3D5694608700E98002800D4B5E0601E51
:104BC0000E90B2E07F007F0801986649484366492D
:104BD000FDF7A2FB019007200199401A002805DD8E
:104BE00002003000390000F06FFB0AE04242002072
:104BF0005E4900F069FB02000B003000390003F051
:104C000040FC6A469278662A02D1019A0A3200E094
:104C100006220E9B9A18142A00DD142224AB30249D
:104C20001C705C1C02E030A803C8139A002A3CDD0B
:104C300030AB03C3139230A803C804F015F92E90CB
:104C400006460834042530000A21FDF779FB0F00E1
:104C500030000A21FDF774FB06003037601E077034
:104C600030000A21FDF76CFB0F0030000A21FDF730
:104C700067FB0600A41E303727706D1EE3D1083491
:104C80001398083813900028CDDD2E9803F008FE05
:104C900002000B0030A803C803F07FFE0022344B53
:104CA00003F018FB30AA03C2C5E72F98201A24A9E5
:104CB0004D1C04E0401E0199491E01916D1C29788C
:104CC0003029F7D069468978662902D10199491CB3
:104CD00006E069468978652901D1149900E0002130
:104CE0000E9A5418A04200DA441E002C1DD48442AF
:104CF00004DA285D342801DD392100E0302122006A
:104D0000681E831801E0641E5B1E521E1E788E42D0
:104D1000F9D0392902D1A95C491CA954002A04D52B
:104D20000500641C0198401C0190019E1395684683
:104D300000786946487004F0CFF8406A0078694608
:104D400008700E9D20B2002804DC149C04487844AE
:104D50000E3013906846807866280BD1761C23E0CD
:104D60000087000097750000A08601000000F03F5A
:104D700084D7974168468078672846D130B20321AE
:104D8000C943884247DBA84245DA761C02A8008F57
:104D90001299C0B2084203D120B2A84200DC05003B
:104DA00030B22D1A00D5002537B2002F00DDBAE051
:104DB0000898411C08913021059A1154002D05DCFA
:104DC00002A8008F1299C0B2084206D00898411C70
:104DD000089169460978059A11547842854200DAAB
:104DE0006E4236B270420B90AD1920B2854200DAA5
:104DF0002C0024B20994220013990598089BC0182E
:104E000002F03AFD281B0C90DAE0684640786128F1
:104E100018D170201BE020B2A84206DA02A9098F3F
:104E2000129AC9B2114200D105006D1E00D50025AD
:104E300068464078672802D16520694607E045202A
:104E4000694604E068464078412801D15020487006
:104E50000898411C089113990978059A11541398E0
:104E6000411C002D05DC02A8008F129AC0B210422E
:104E700019D00898421C08926A461278059B1A5469
:104E8000002D10DD641E20B2854200DA2C0022B213
:104E90000598089BC01802F0EFFC24B2089800198E
:104EA0000890281B0B900598089940186946497886
:104EB000017031B2002903D42B214170871C03E01B
:104EC0002D224270871C4E42002412AD300008E0B3
:104ED0000A21FDF721FA30AA03C229703098641C18
:104EE0006D1C00B20028F3DC012C08DC6846407819
:104EF00020210143652902D1302038707F1C002C0D
:104F000009D1302038707F1C07E0641E12A8005DB4
:104F1000303038707F1C002CF7DC05980899401859
:104F2000381A09904CE020B231B288421DDA22B220
:104F300013990598089BC01802F09EFC24B20898AB
:104F400000190890391B0B91002D05DC02A9098F6F
:104F5000129AC9B2114206D069460978059A1154CD
:104F60000998401C09900C952AE032B213990598D3
:104F7000089BC01802F080FC0898C0190890A41B78
:104F8000002D05DC02A9098F129AC9B2114205D081
:104F9000411C089169460978059A115420B285424E
:104FA00000DA2C0022B21398C1190598089BC0188A
:104FB00002F062FC24B2089800190890281B0B909C
:104FC00002A83821405C14210140102900D0C4E01F
:104FD0000798089940180B994018099940180C999E
:104FE00040180F99884200DBB7E0081A0A90B4E035
:104FF00002AA3A20105C622808D068280ED06A28DD
:1050000014D06C281DD0712810D01AE03498016893
:105010000868091D349B1960C0B218E03498016813
:105020000868091D349B196080B210E0349800684C
:10503000C31D072083433498036003CB349C236053
:1050400006E0349801680868091D349B1960002146
:1050500002AB03C3108F1299C0B208425BD002A802
:1050600003C8002901D1002855D0684600782021C6
:10507000014378294FD1079815A930220A54401CC2
:10508000421C07926A4612780A5444E002AA3A2067
:10509000105C622808D068280ED06A2814D06C28CA
:1050A0001DD0712810D01AE0349801680868091DD5
:1050B000349B196040B218E0349801680868091DF3
:1050C000349B196000B210E034980068C31D0720BB
:1050D00083433498036003CB349D2B6006E03498FF
:1050E00001680868091D349B1960C11702AB03C32E
:1050F000002902DA07982D2109E0108F204202D002
:1051000007982B2103E0C00705D50798202115AA91
:105110001154401C079015A807994018059068463F
:10512000017802A800F03EF817E014980790349830
:1051300000680168001D349A106015A801700CE029
:1051400014980790252015A9087068460078002853
:1051500003D007946846007848700F980799401A62
:105160000A99401A0899401A0B99401A0999401A4D
:105170000C99401A019002A83821405C400701D5E3
:10518000FFF77BFA2020694608700198002801DCAF
:10519000FFF773FA019C329DFFF762FA0020C043CB
:1051A00035B0F0BDF2B586B0040025696F2901D194
:1051B000082707E00846FFF721F9782801D00A27D9
:1051C00000E010273C2603CC083C04AA03C26A4630
:1051D000127E642A03D06A46127E692A09D1002908
:1051E00007DA04A803C800220023121A8B4104A87E
:1051F0000CC004A803C800290DD100280BD1206BD6
:10520000002808D1082F3DD13820205C000739D56F
:105210003B26302035E00294009504A830C8761E65
:105220000196200029003A00FB1703F07CFE303283
:10523000D0B23A280DDA00988255200029003A00B1
:10524000FB1703F070FE04000D0007D1002C05D100
:105250000AE06846007E8218AF32ECE70298C06828
:10526000009989198842DAD3029C009D082F09D140
:105270003820205C000705D5A85D302802D0761EB6
:105280003020A8553C20801BA061A919E160216B4A
:10529000884206DA081A2062208F1C4901402187C3
:1052A00010E000290ED53821615C14220A40102A32
:1052B00008D1616B6269891A226A891A081A002862
:1052C00000DD206207B0F0BDF8B50026104F0400E5
:1052D0000D00009214E0C00707D532003B0020000B
:1052E000290002F0F7FF04000D0000984010009024
:1052F0003000390032003B0002F0ECFF06000F00E6
:1053000000980028E7D120002900F4BDEFFF00003D
:1053100000002440F8B50024002B11D007000E0037
:1053200014001D002178B068B847B060002809D08B
:10533000F06A401CF0620020641C6D1EF2D1040073
:105340002000F2BD0020C043F9E7FEE738B50400B5
:1053500014D0250078356868002803D12870200013
:1053600002F0C6FA24206860206801680122914397
:105370000160200000F056FB012801D1012032BD60
:10538000606A002802D0200000F052FC20684168CA
:10539000084A0A404260206881682A22914381605D
:1053A000FFE72068016801220A430260200000F044
:1053B000A5FC32BDFFB7FFFF70B5040001D101208D
:1053C00070BD2500783524206860206801680122BE
:1053D00091430160002620680660206846602068CE
:1053E0008660200002F0EFFAEE606E60AE60266626
:1053F00066662E70002070BDF1B584B01F000646B1
:105400005036F06A202861D10C000FD06846028027
:10541000002A0BD00498806880214901884207D176
:1054200004980069002803D1E00701D501204EE06F
:10543000002575632120F062FEF7EEF80100684652
:10544000008830806846008870803A000498806840
:1054500080235B01984209D104980069002805D196
:105460002500049F0192029104001AE02000F8E751
:1054700021788162641C11E001980090029B002257
:105480008021380000F098FC00281BD13868002CDF
:10549000EED12988C905C90D8162AD1C7088401EF6
:1054A000708070880028E7D13800029B0199009134
:1054B0000022402100F080FC002803D12020F0626F
:1054C000002004E02020F062032000E0022005B06C
:1054D000F0BD70B58023C358202B28D100290BD0F4
:1054E000130009D0836880246401A34206D10369B4
:1054F000002B03D1CB0701D5012070BD002303662B
:1055000003680C4CA3420FD05B681B020CD5EFF371
:105510001083012484F31088046825688026F6042B
:105520002E43266083F3108800F092FC70BD0220A9
:1055300070BD000000480040F8B504000120009054
:10554000EFF31080012181F3108821680A68784BFD
:1055500013400B6080F31088EFF31080012181F37A
:10556000108821688A6801239A438A6080F3108832
:10557000206E01280BD1EFF31080012181F31088F8
:1055800021680A6810239A430A6080F31088270074
:105590006037396900258020002907D02268926889
:1055A000024002D0634A8A6300E08D637969402635
:1055B000002907D022689268324002D05E4A8A638E
:1055C00000E08D6321688968084016D0EFF31080F1
:1055D000012181F3108821688A6880239A438A60B8
:1055E00080F310883869002807D003F0B3FD002845
:1055F00002D03869856300E0009520688068064025
:1056000015D0EFF31080012181F3108821688A689A
:1056100040239A438A6080F310887869002806D076
:1056200003F098FD00281CD07869856302E000989B
:10563000002816D020005230002101800181BD6079
:10564000FD607D620F202168086220688169082260
:105650000A4382612020F86138623D60200003F037
:1056600026FE0020F2BDF8B5EFF31081012282F38F
:105670001088026813682D4C1C40146081F3108858
:10568000EFF31081012282F31088026893680124ED
:10569000A343936081F31088016E01290BD1EFF3CE
:1056A0001081012282F31088026813681024A3433A
:1056B000136081F3108805680400603420210F23F3
:1056C0000022AE68760626D5EFF3108500950125F9
:1056D00085F310880568AE684027BE43AE60009D24
:1056E00085F310886569002D0AD01448A8636069A5
:1056F00003F030FD002817D06069816B884713E004
:105700005A268553426505682B6203689D69082601
:105710002E439E6104E000265A27C65342652B6241
:105720002162226003F0C4FD0020F2BDDFFEFFFF16
:105730001FFEFFFFB55F0008EF5F00083360000841
:10574000FEB504002368D869194609689A682500DF
:10575000583520260E400096202606400196002649
:10576000AB4F07400BD1019F002F0CD0009F002FA3
:1057700009D02969002901D020008847F7BDD70743
:1057800002D4A44F0F4078D0C70706D5CF0504D563
:1057900001271F62EB6A1F43EF62830708D5D30717
:1057A00006D5022327683B62EB6A04271F43EF629A
:1057B0000423184207D0D70705D527683B62EB6A58
:1057C00002271F43EF620823184209D0009F002FD1
:1057D00001D1D20704D522681362EA6A1343EB624F
:1057E00080221201104007D0480105D520680262CE
:1057F000E86A20210143E962E86A002833D0019871
:10580000002807D00098002804D02969002901D079
:1058100020008847E86A402721688968394002D11A
:105820002821014024D0200000F082FB20688068FD
:10583000074019D0EFF31080012181F3108821680F
:105840008A6840239A438A6080F31088E8690028B8
:105850000AD071498163E86903F07CFC002802D01A
:10586000E869816B8847F7BD200003F022FDF7BD92
:10587000200003F01EFDEE62F7BDAF68012F00D0DF
:1058800098E01027384200D0394200D192E01F62E0
:105890001020C0430121C9432268926852064CD5AA
:1058A000EA6913685B689BB2002BE5D05827E75B79
:1058B000BB42E1DA6B8012681268920635D4EFF3CE
:1058C00010820092012282F3108822681368534FDD
:1058D0001F401760009A82F31088EFF310820123B3
:1058E00083F3108823689F683940996082F3108899
:1058F000EFF31081012282F3108822689368402719
:10590000BB43936081F310882021A962AE60EFF35E
:105910001081012282F310882268136818401060F9
:1059200081F31088E86903F0F0FB0220E86058205A
:10593000205A6988411A89B238E05822A25A6B88E5
:10594000D21A6B461A806A88002A60D06A4612888A
:10595000002A5CD0EFF310820192012282F31088BA
:10596000226813682E4F1F401760019A82F3108837
:10597000EFF31082012383F3108823689F68394076
:10598000996082F310882021A962AE602E61EFF346
:105990001081012282F31088226813681840106079
:1059A00081F310880220E86068460188200003F037
:1059B00081FCF7BD80277F03384206D0520204D510
:1059C0001F62200003F077FCF7BD8022104207D051
:1059D0000A4005D06969002919D020008847F7BD21
:1059E0004022104013D00A4011D0EFF31080012163
:1059F00081F3108821680A6840239A430A6080F383
:105A00001088202068626E61200003F055FCF7BD0D
:105A10000F08000020010004A15F0008FFFEFFFF47
:105A2000DFFEFFFFF8B5050000242B6818687949F0
:105A30000140A86808432969014368690843E96986
:105A400001431960586874490140E8680843586088
:105A5000A86972498B4202D00100286A08439968FC
:105A60006F4A0A40104398606E48810880221202F3
:105A70006D4EB34233D16D4EF66CB607B60F04D0FF
:105A8000022E6AD06BD3032E63E001260096674B8B
:105A90001026EF699742009F00D08BE0002F0AD0BC
:105AA000012F7AD0022F7BD0042F00D17DE0082F68
:105AB00000D17DE0A8E003F01CFF00282DD069682C
:105AC00040004A088018FCF73BFC01001039B74A37
:105AD0009142EFD202400007400F104384E0864E0F
